:100000000C9434000C943E000C943E000C943E0082
:100010000C943E000C943E000C943E000C943E0068
:100020000C943E000C943E000C943E000C943E0058
:100030000C943E000C943E000C943E000C943E0048
:100040000C943E000C943E000C943E000C943E0038
:100050000C943E000C943E000C943E000C943E0028
:100060000C943E000C943E0011241FBECFEFD8E04C
:10007000DEBFCDBF0E9485000C9414010C940000DB
:100080008EE284B980E58CBD85B1866085B983EC4C
:1000900099E00197F1F700C0000008958EBD0DB4FE
:1000A00007FEFDCF8EB5089588B1816088B92FE332
:1000B0008DE093E0215080409040E1F700C00000C7
:1000C00088B18E7F88B92FE38DE093E02150804086
:1000D0009040E1F700C0000088B1826088B92FE34A
:1000E0008DE093E0215080409040E1F700C0000097
:1000F00088B18D7F88B92FE38DE093E02150804057
:100100009040E1F700C0000008950F931F93CF9334
:10011000DF9300D01F92CDB7DEB787B1836087B978
:100120000E9454000E94400085E5898383E38A830E
:1001300084E48B8300E010E0043011059CF585B168
:100140008B7F85B983EC99E00197F1F700C000003F
:10015000E1E0F0E0EC0FFD1FE00FF11F80810E9455
:100160004E00813519F498B1916098B9813319F432
:1001700098B1926098B98A3A31F488B18E7F88B983
:1001800088B18D7F88B985B1846085B99FE32DE002
:1001900083E0915020408040E1F700C000000F5FF5
:1001A0001F4FCACF00E010E0043011059CF585B167
:1001B0008D7F85B983EC99E00197F1F700C00000CD
:1001C000E1E0F0E0EC0FFD1FE00FF11F80810E94E5
:1001D0004E00813519F498B1916098B9813319F4C2
:1001E00098B1926098B98A3A31F488B18E7F88B913
:1001F00088B18D7F88B985B1826085B99FE32DE094
:1002000083E0915020408040E1F700C000000F5F84
:100210001F4FCACF80E090E00F900F900F90DF91BA
:0C022000CF911F910F910895F894FFCF2B
:00000001FF
