S0160000536C6176655F5350495F746573742E73726563A9
S11300000C9434000C943E000C943E000C943E007E
S11300100C943E000C943E000C943E000C943E0064
S11300200C943E000C943E000C943E000C943E0054
S11300300C943E000C943E000C943E000C943E0044
S11300400C943E000C943E000C943E000C943E0034
S11300500C943E000C943E000C943E000C943E0024
S11300600C943E000C943E0011241FBECFEFD8E048
S1130070DEBFCDBF0E947B000C949F000C94000057
S113008080E184B980E48CBD08950DB407FEFDCFF2
S11300908EB5089588B1816088B92FE38DE093E02F
S11300A0215080409040E1F700C0000088B18E7F6D
S11300B088B92FE38DE093E0215080409040E1F730
S11300C000C0000088B1826088B92FE38DE093E01E
S11300D0215080409040E1F700C0000088B18D7F3E
S11300E088B92FE38DE093E0215080409040E1F700
S11300F000C0000008950E94400087B1836087B962
S11301000E944A000E944500853529F491E59EBD70
S113011098B1916098B9833329F491E39EBD98B165
S1130120926098B9843471F78AEA8EBD88B18E7F63
S113013088B988B18D7F88B980E090E00895F894FB
S1050140FFCFEB
S9030000FC
