:100000000C9434000C9451000C9451000C94510049
:100010000C9451000C9451000C9451000C9451001C
:100020000C9451000C9451000C9451000C9451000C
:100030000C9451000C9451000C9451000C945100FC
:100040000C9451000C9451000C9451000C945100EC
:100050000C9451000C9451000C9451000C945100DC
:100060000C9451000C94510011241FBECFEFD8E026
:10007000DEBFCDBF11E0A0E0B1E0E4E9F3E002C0F3
:1000800005900D92A830B107D9F721E0A8E0B1E0C2
:1000900001C01D92AA30B207E1F70E9433010C940F
:1000A000C8010C9400008091B900887F08951092D7
:1000B000B9008AE08093B80084E88093BC0008957A
:1000C00080E090E08230910504F528B1216028B9E4
:1000D00028B1226028B92FE33DE043E021503040B1
:1000E0004040E1F700C0000028B12E7F28B928B1B8
:1000F0002D7F28B92FE33DE043E0215030404040C0
:10010000E1F700C000000196DDCF0895CF93C82F1E
:1001100084EA8093BC008091BC008823E4F70E94AD
:100120005300883011F0803121F5C093BB0084E882
:100130008093BC008091BC008823E4F70E945300A8
:100140008831D1F08032D9F08034E1F08834E9F0A0
:100150008833F1F08035F9F0883501F1803709F105
:10016000883711F1803919F1883921F585E090E05F
:1001700023C080E090E020C081E090E01DC082E0DC
:1001800090E01AC083E090E017C084E090E014C0D3
:1001900085E090E011C085E090E00EC085E090E041
:1001A0000BC085E090E008C085E090E005C085E0E8
:1001B00090E002C086E090E0CF910895E7EAF1E692
:1001C0003197F1F700C000008093BB0084E8809372
:1001D000BC008091BC008823E4F70E945300883261
:1001E00029F0803331F481E090E0089580E090E0E0
:1001F000089582E090E00895882321F084EC8093B4
:10020000BC0003C084E88093BC008091BC008823BC
:10021000E4F70E945300803529F0883531F481E0FD
:1002200090E0089580E090E0089582E090E00895E5
:1002300084E98093BC008091BC0084FDFCCF0895CC
:10024000813519F498B1916098B9813319F498B156
:10025000926098B9813431F488B18E7F88B988B1C1
:100260008D7F88B90895CF93DF9300D000D01F927F
:10027000CDB7DEB70E94570087B1836087B90E946F
:10028000600085E0E2E0F1E0DE01119601900D9260
:100290008A95E1F7E0910801F0910901E050FF4FE4
:1002A00080810E9486008330910581F134F4813091
:1002B000910569F0029721F159C08530910509F443
:1002C00051C00CF447C0069709F44EC04FC000E07F
:1002D00010E0043011058CF4E1E0F0E0EC0FFD1FBC
:1002E000E00FF11F80810E94DE00009719F0019756
:1002F000029718F00F5F1F4FECCF0E94180136C015
:1003000081E10E94DE000E94180130C011E0812FBF
:100310000E94FC002091BB00213409F410E02091E0
:10032000BB00213219F40E94180120C0009729F463
:100330008091BB000E942001EACF8130910529F411
:100340008091BB000E94200111C0029701F70E941A
:1003500060000CC080E00E94FC008091BB000E9405
:10036000200104C00E9460000E946000809108018A
:1003700090910901892B39F481E090E09093090173
:100380008093080187CF109209011092080182CF53
:04039000F894FFCF0F
:080394005051553344221100C1
:00000001FF
