S0110000536C6176655F4932432E73726563FB
S11300000C9434000C943E000C943E000C943E007E
S11300100C943E000C943E000C943E000C943E0064
S11300200C943E000C943E000C943E000C943E0054
S11300300C943E000C943E000C943E000C943E0044
S11300400C943E000C943E000C943E000C943E0034
S11300500C943E000C943E000C943E000C943E0024
S11300600C943E000C943E0011241FBECFEFD8E048
S1130070DEBFCDBF0E94F7000C9450010C94000029
S113008080E090E08230910504F528B1216028B920
S113009028B1226028B92FE33DE043E021503040ED
S11300A04040E1F700C0000028B12E7F28B928B1F4
S11300B02D7F28B92FE33DE043E0215030404040FC
S11300C0E1F700C000000196DDCF08958091B900EA
S11300D0887F08958093BA0084EC8093BC000895CF
S11300E00E946600803671F0883679F0883A81F093
S11300F0803B89F0803AA1F7ECEBF0E080818068E6
S11301008083EECF80E090E0089580E090E0089551
S113011081E090E0089581E090E00895E7EAF1E657
S11301203197F1F700C000008093BB0084EC80930A
S1130130BC008091BC008823E4F70E946600803AEA
S113014041F4ECEBF0E080818068808380E090E013
S11301500895883B39F0803C41F0883C49F483E0C1
S113016090E0089581E090E0089582E090E00895A1
S113017084E090E00895882321F084EC8093BC000F
S113018003C084E88093BC008091BC008823E4F71A
S11301900E946600803861F0883869F0803A71F412
S11301A0ECEBF0E080818068808382E090E0089549
S11301B080E090E0089581E090E0089583E090E08D
S11301C00895843469F0853519F0833379F404C0D3
S11301D088B1816088B9089588B1826088B908952A
S11301E088B18E7F88B988B18D7F88B90895CF93FF
S11301F0DF9300D000D0CDB7DEB780E50E946A005F
S113020087B1836087B90E94400081E5898381E3D7
S11302108A8381E48B8381E28C830E94700000973F
S113022019F00197E1F038C010E081E00E94BB00B2
S11302309C01225031092230310570F1123261F1F2
S1130240009731F41091BB00812F0E94E100EDCFA3
S1130250019759F78091BB000E94E1001DC000E0A6
S113026010E004301105B4F4E1E0F0E0EC0FFD1F00
S1130270E00FF11F80810E948E00009759F08230B8
S1130280910541F08330910529F0049719F00F5F2F
S11302901F4FE7CF1092BC0080E50E946A00BDCFDB
S10702A0F894FFCFFC
S9030000FC
